S01C0000456C6563747269635F57617465724865617465722E7372656322
S11300000C942A000C940C050C9435050C945E0594
S11300100C9447000C9447000C9447000C942A0657
S11300200C9447000C9451060C9447000C94D8058A
S11300300C9447000C9447000C9447000C94470020
S11300400C94F7020C9447000C9447000C9447005E
S11300500C94470011241FBECFE5D8E0DEBFCDBF0E
S113006010E0A0E6B0E0EAE4F0E102C005900D92F1
S1130070AA37B107D9F720E0AAE7B0E001C01D9282
S1130080A439B207E1F70E94D5020C9423080C941A
S11300900000809180008823B9F080918300813032
S11300A0C1F410928100809163008B5F80936300A0
S11300B08B3418F08BE4809363006091630080E0DC
S11300C090E00E948D0408958F5F809380001092C9
S11300D08100089580917F008823B9F08091830086
S11300E08130C1F410928100809163008550809327
S11300F06300843218F483E28093630060916300A8
S113010080E090E00E948D0408958F5F80937F00CB
S113011010928100089580917D0090917E00019657
S113012090937E0080937D0020918400309185001F
S11301308217930739F410927E0010927D0080E0BC
S11301400E94E70208958091830081110AC080E033
S113015090E00E94A7048093630081E08093830071
S113016008950E9428020E94D8010E94F5010E946D
S1130170E9016091630080E090E00E948D04109298
S11301808300089580918300813049F461E083E025
S11301900E940504813019F40E94DE0102C00E940D
S11301A0D80180918200813011F40E943402809140
S11301B08300813041F5809181008F5F80938100BD
S11301C02FEF80E792E0215080409040E1F700C09B
S11301D0000080918100863068F0109280001092B7
S11301E07F000E942E02809160000E9439021092CA
S11301F0820008950E942E02809163000E943902B9
S113020081E080938200089580E090E00E94A7043A
S1130210811106C06091630080E090E00E948D042B
S113022008950E94870580E00E94AE040E94EB04BA
S113023089E490E00E94FD0480E00E94C7040E94CB
S1130240F1048AE690E00E94020580E00E94E00446
S11302500E94F70483EA90E00E94070540E063E00F
S113026083E00E94230340E062E081E00E942303D4
S113027040E062E083E00E9423030E94C8010E94E0
S1130280FB010E94DA020E94F10282E891E00E94DE
S11302901E0384E690E00E9498058BE890E00E949B
S11302A0D3050E9414060E94210682EC90E00E946D
S11302B0250608952091630030E08091600090E06D
S11302C0AC014B5F5F4F241735075CF4BC016550EC
S11302D07109621773072CF40E94E9010E94F50169
S11302E008950597821793072CF40E94E3010E9456
S11302F0F50108952417350724F40E94E9010E94AA
S1130300EF01089580918300813009F040C080910D
S11303107C008F5F80937C000E94E402BC0180E03B
S113032090E00E94190720E030E04AEF53E40E9475
S1130330A70720E030E040E85AE30E94A7070E94A4
S1130340EA06709362006093610020917A00309114
S11303507B00260F371F30937B0020937A00809117
S11303607C008A30A1F410927C00ADECBCEC0E94BD
S11303701408969587959695879596958795809375
S1130380600010927B0010927A000E945A01089536
S113039041E060E083E00E94230341E061E083E008
S11303A00E94230341E064E083E00E942303089554
S11303B040E060E083E00E949403089560E083E0FD
S11303C00E943304089541E061E083E00E949403B5
S11303D0089540E061E083E00E949403089541E0C1
S11303E064E083E00E949403089540E064E083E0C5
S11303F00E94940308956FEF82E00E94670441E035
S113040061E080E00E94230341E062E080E00E941A
S1130410230341E063E080E00E94230341E060E0C5
S113042081E00E94230341E065E081E00E94230310
S113043041E066E081E00E94230341E067E081E05F
S11304400E94230341E067E082E00E9423030895B1
S113045041E067E082E00E949403089540E067E091
S113046082E00E949403089567E082E00E943304CE
S113047008950F931F93CF93DF93CDB7DEB72A97D9
S11304800FB6F894DEBF0FBECDBF9AE0E0E7F0E010
S1130490DE01119601900D929A95E1F79DEC899FEA
S11304A0912D1124969596959695392F330F232FD8
S11304B0220F220F230F821BE1E0F0E0EC0FFD1F5F
S11304C0E80FF11D0081E1E0F0E0EC0FFD1FE90F02
S11304D0F11D1081402F417060E082E00E9494037E
S11304E001FB442740F961E082E00E94940302FB8F
S11304F0442740F962E082E00E94940303FB44270E
S113050040F963E082E00E94940304FB442740F92D
S113051064E082E00E94940305FB442740F965E00F
S113052082E00E94940306FB442740F966E082E0DF
S11305300E949403412F417061E080E00E94940383
S113054011FB442740F962E080E00E94940312FB0F
S1130550442740F963E080E00E94940313FB44279E
S113056040F960E081E00E94940314FB442740F9C1
S113057065E081E00E94940315FB442740F966E09E
S113058081E00E94940316FB442740F967E081E070
S11305900E9494032A960FB6F894DEBF0FBECDBF17
S11305A0DF91CF911F910F9108950E9404010E9441
S11305B01101FFCF86B1887F86B986B1876086B97D
S11305C086B1806886B9089584B195B1089597B1CC
S11305D0907E97B997B1892B87B986B1806486B923
S11305E008950E94870586B1886086B908951F9290
S11305F00F920FB60F9211242F933F934F935F9353
S11306006F937F938F939F93AF93BF93EF93FF93D6
S1130610E0918800F09189000995FF91EF91BF91D5
S1130620AF919F918F917F916F915F914F913F9186
S11306302F910F900FBE0F901F90189590938900E3
S1130640809388000895423008F06DC04130A1F5D0
S1130650813089F028F08230C9F0833011F1089597
S11306602AB381E090E002C0880F991F6A95E2F7EF
S1130670822B8ABB089527B381E090E002C0880FE3
S1130680991F6A95E2F7822B87BB089524B381E012
S113069090E002C0880F991F6A95E2F7822B84BB11
S11306A0089521B381E090E002C0880F991F6A95F4
S11306B0E2F7822B81BB0895813091F028F08230DB
S11306C0D9F0833029F108952AB381E090E002C083
S11306D0880F991F6A95E2F7809582238ABB089553
S11306E027B381E090E002C0880F991F6A95E2F772
S11306F08095822387BB089524B381E090E002C0F3
S1130700880F991F6A95E2F78095822384BB089528
S113071021B381E090E002C0880F991F6A95E2F747
S11307208095822381BB0895423008F06DC041302A
S1130730A1F5813089F028F08230C9F0833011F1BD
S113074008952BB381E090E002C0880F991F6A9549
S1130750E2F7822B8BBB089528B381E090E002C0BE
S1130760880F991F6A95E2F7822B88BB089525B3F9
S113077081E090E002C0880F991F6A95E2F7822B0E
S113078085BB089522B381E090E002C0880F991FD1
S11307906A95E2F7822B82BB0895813091F028F0AC
S11307A08230D9F0833029F108952BB381E090E0B1
S11307B002C0880F991F6A95E2F7809582238BBB4C
S11307C0089528B381E090E002C0880F991F6A95CC
S11307D0E2F78095822388BB089525B381E090E0F9
S11307E002C0880F991F6A95E2F78095822385BB22
S11307F0089522B381E090E002C0880F991F6A95A2
S1130800E2F78095822382BB0895813079F028F045
S11308108230A9F08330E1F024C089B390E002C0B3
S1130820959587956A95E2F78170089586B390E06F
S113083002C0959587956A95E2F78170089583B310
S113084090E002C0959587956A95E2F781700895C6
S113085080B390E002C0959587956A95E2F7817020
S1130860089580E00895813089F028F08230C9F03D
S1130870833011F108952BB381E090E002C0880F1A
S1130880991F6A95E2F782278BBB089528B381E00C
S113089090E002C0880F991F6A95E2F7822788BB0F
S11308A0089525B381E090E002C0880F991F6A95EE
S11308B0E2F7822785BB089522B381E090E002C06D
S11308C0880F991F6A95E2F7822782BB08956F3FCC
S11308D0A1F4813049F028F0823049F0833051F09E
S11308E008958FEF8ABB08958FEF87BB08958FEF2C
S11308F084BB08958FEF81BB0895813041F028F0C7
S1130900823039F0833039F008951ABA089517BA4D
S1130910089514BA089511BA08958EBB9FBB6DBB98
S11309200FB607FE05C08FB78F778FBF91E001C068
S113093090E08CB384608CBB8CB382608CBBE199F7
S1130940FECF913019F48FB780688FBF08958EBBA6
S11309509FBB8CB381608CBB8DB30895811106C09D
S113096095B7926095BF95B7916095BF813031F48A
S113097095B7926095BF95B79E7F95BF823031F44D
S113098085B78D7F85BF85B7816085BF0895811147
S113099006C095B7986095BF95B7946095BF8130B0
S11309A031F495B7986095BF95B79B7F95BF82301A
S11309B031F485B7877F85BF85B7846085BF089587
S11309C0811103C094B7906494BF813019F484B743
S11309D08F7B84BF08950E9487058BB780648BBF8B
S11309E008950E9487058BB780688BBF08950E9485
S11309F087058BB780628BBF089590938B0080939B
S1130A008A00089590938F0080938E0008959093A8
S1130A108D0080938C0008951F920F920FB60F9251
S1130A2011242F933F934F935F936F937F938F93EF
S1130A309F93AF93BF93EF93FF93E0918A00F0915C
S1130A408B00309709F00995FF91EF91BF91AF9119
S1130A509F918F917F916F915F914F913F912F91D2
S1130A600F900FBE0F901F9018951F920F920FB604
S1130A700F9211242F933F934F935F936F937F9320
S1130A808F939F93AF93BF93EF93FF93E0918E0067
S1130A90F0918F00309709F00995FF91EF91BF9184
S1130AA0AF919F918F917F916F915F914F913F9102
S1130AB02F910F900FBE0F901F9018951F920F92B9
S1130AC00FB60F9211242F933F934F935F936F931D
S1130AD07F938F939F93AF93BF93EF93FF93E09193
S1130AE08C00F0918D00309709F00995FF91EF91FA
S1130AF0BF91AF919F918F917F916F915F914F9132
S1130B003F912F910F900FBE0F901F9018958FB7A4
S1130B1080688FBF089593B7987F93BF93B7977FEB
S1130B2093BF93B79F7B93BF93B7892B83BF0895DC
S1130B30CF92DF92EF92FF92CF93DF93EC010E946A
S1130B40870589B7816089BF60916A0070916B00E5
S1130B5080E090E00E94190720E030E040E853E490
S1130B600E94A70720E030E04AE756E40E94780696
S1130B706B017C01BE0180E090E00E941907A7018F
S1130B8096010E9478060E94EA067093850060939D
S1130B90840083E00E948B05DF91CF91FF90EF905A
S1130BA0DF90CF90089590939100809390000895E2
S1130BB01F920F920FB60F9211242F933F934F93CE
S1130BC05F936F937F938F939F93AF93BF93EF93B1
S1130BD0FF93E0919000F0919100309709F009950E
S1130BE0FF91EF91BF91AF919F918F917F916F9101
S1130BF05F914F913F912F910F900FBE0F901F90D7
S1130C0018959EB5987F9EBD9FB59E7F9FBD9FB54D
S1130C109D7F9FBD9EB5977F9EBD9EB59F7E9EBDC9
S1130C209EB5892B8EBD08958EB588608EBD84E2F5
S1130C3094EF9BBD8ABD84E00E9401060E94870553
S1130C40089589B7806189BF089590938700809340
S1130C50860008951F920F920FB60F9211242F93BE
S1130C603F934F935F936F937F938F939F93AF9330
S1130C70BF93EF93FF93E0918600F091870009956D
S1130C80FF91EF91BF91AF919F918F917F916F9160
S1130C905F914F913F912F910F900FBE0F901F9036
S1130CA018951F920F920FB60F9211242F933F9312
S1130CB04F935F936F937F938F939F93AF93BF9360
S1130CC0EF93FF93E0919200F09193000995FF91C7
S1130CD0EF91BF91AF919F918F917F916F915F91B0
S1130CE04F913F912F910F900FBE0F901F90189529
S1130CF00E948C060C946D070E94660758F00E94AF
S1130D005F0740F029F45F3F29F00C945607511116
S1130D100C94A1070C945C070E947E0768F3992346
S1130D20B1F3552391F3951B550BBB27AA276217E3
S1130D307307840738F09F5F5F4F220F331F441FF0
S1130D40AA1FA9F335D00E2E3AF0E0E832D0915024
S1130D505040E695001CCAF72BD0FE2F29D0660F11
S1130D60771F881FBB1F261737074807AB07B0E854
S1130D7009F0BB0B802DBF01FF2793585F4F3AF05A
S1130D809E3F510578F00C9456070C94A1075F3FE1
S1130D90E4F3983ED4F3869577956795B795F795E0
S1130DA09F5FC9F7880F911D9695879597F90895C8
S1130DB0E1E0660F771F881FBB1F62177307840764
S1130DC0BA0720F0621B730B840BBA0BEE1F88F773
S1130DD0E09508950E94860788F09F5798F0B92FF0
S1130DE09927B751B0F0E1F0660F771F881F991F5C
S1130DF01AF0BA95C9F714C0B13091F00E94A00757
S1130E00B1E008950C94A007672F782F8827B85F66
S1130E1039F0B93FCCF3869577956795B395D9F7B3
S1130E203EF490958095709561957F4F8F4F9F4FBD
S1130E300895E89409C097FB3EF4909580957095C9
S1130E4061957F4F8F4F9F4F9923A9F0F92F96E912
S1130E50BB279395F695879577956795B795F11187
S1130E60F8CFFAF4BB0F11F460FF1BC06F5F7F4F24
S1130E708F4F9F4F16C0882311F096E911C0772336
S1130E8021F09EE8872F762F05C0662371F096E83F
S1130E90862F70E060E02AF09A95660F771F881F0E
S1130EA0DAF7880F9695879597F9089597F99F67CC
S1130EB080E870E060E008959FEF80EC08950024DE
S1130EC00A941616170618060906089500240A94AB
S1130ED012161306140605060895092E0394000C31
S1130EE011F4882352F0BB0F40F4BF2B11F460FFC0
S1130EF004C06F5F7F4F8F4F9F4F089557FD9058E9
S1130F00440F551F59F05F3F71F04795880F97FBC9
S1130F10991F61F09F3F79F0879508951216130683
S1130F201406551FF2CF4695F1DF08C016161706B2
S1130F301806991FF1CF86957105610508940895E7
S1130F40E894BB2766277727CB0197F908950E9479
S1130F50BA070C946D070E945F0738F00E94660779
S1130F6020F0952311F00C9456070C945C0711247F
S1130F700C94A1070E947E0770F3959FC1F3950F0F
S1130F8050E0551F629FF001729FBB27F00DB11D09
S1130F90639FAA27F00DB11DAA1F649F6627B00D99
S1130FA0A11D661F829F2227B00DA11D621F739F82
S1130FB0B00DA11D621F839FA00D611D221F749F90
S1130FC03327A00D611D231F849F600D211D822FD7
S1130FD0762F6A2F11249F5750409AF0F1F08823FE
S1130FE04AF0EE0FFF1FBB1F661F771F881F91502B
S1130FF05040A9F79E3F510580F00C9456070C947D
S1131000A1075F3FE4F3983ED4F3869577956795FF
S1131010B795F795E7959F5FC1F7FE2B880F911D54
S11310209695879597F90895A29FB001B39FC00143
S1131030A39F700D811D1124911DB29F700D811D00
S10D10401124911D0895F894FFCFC8
S113104A3C3C003C00000100080040000001000490
S10D105A3F065B4F666D7D07FF67DC
S9030000FC
